{
  "transactions": [
    {
      "hash": "0x7aa7559221d3712b8cee2d507f5e3a20685eec139e072c542c5b0af66d337d0f",
      "transactionType": "CALL",
      "contractName": null,
      "contractAddress": "0xe2dc0a8d8aad4a177ce3285c65b71e042987184d",
      "function": "safeTransferFrom(address,address,uint256)",
      "arguments": [
        "0x424bBA2a6f1c14e4D8e2Cf1bCAE1B06740Fa4755",
        "0xf2eAcB364AD62cA6aaCEcF207aBf93FA7de4E03B",
        "1"
      ],
      "transaction": {
        "from": "0xb76c4d0bdc1b1508b66a36be5fdc362cc79988b3",
        "to": "0xe2dc0a8d8aad4a177ce3285c65b71e042987184d",
        "gas": "0x10663",
        "value": "0x0",
        "input": "0x42842e0e000000000000000000000000424bba2a6f1c14e4d8e2cf1bcae1b06740fa4755000000000000000000000000f2eacb364ad62ca6aacecf207abf93fa7de4e03b0000000000000000000000000000000000000000000000000000000000000001",
        "nonce": "0x4",
        "chainId": "0xa869"
      },
      "additionalContracts": [],
      "isFixedGasLimit": false
    }
  ],
  "receipts": [
    {
      "status": "0x1",
      "cumulativeGasUsed": "0xc629",
      "logs": [
        {
          "address": "0xe2dc0a8d8aad4a177ce3285c65b71e042987184d",
          "topics": [
            "0xddf252ad1be2c89b69c2b068fc378daa952ba7f163c4a11628f55a4df523b3ef",
            "0x000000000000000000000000424bba2a6f1c14e4d8e2cf1bcae1b06740fa4755",
            "0x000000000000000000000000f2eacb364ad62ca6aacecf207abf93fa7de4e03b",
            "0x0000000000000000000000000000000000000000000000000000000000000001"
          ],
          "data": "0x",
          "blockHash": "0xe65b8489df3e9126330339c723a448743a2262cbf629ea54680436849d28802a",
          "blockNumber": "0x23a7cdc",
          "transactionHash": "0x7aa7559221d3712b8cee2d507f5e3a20685eec139e072c542c5b0af66d337d0f",
          "transactionIndex": "0x0",
          "logIndex": "0x0",
          "removed": false
        }
      ],
      "logsBloom": "0x00040000000000000000000000000000000000000800000000000000000000000000000000000000000000000000000000000000000000000000000000040040000000000000000000000008000000000000000000040000000000000000000000000000000080000000000000000000000000000000000000000010000000000400000000000000000000000000000000000800000000000000000000000000000000000000000000000000000000000000000000000000000000000200000000000002000000000000000000000000000000000000000000000000020040000000000000000000000080000000000000000000000000000000000000000000",
      "type": "0x2",
      "transactionHash": "0x7aa7559221d3712b8cee2d507f5e3a20685eec139e072c542c5b0af66d337d0f",
      "transactionIndex": "0x0",
      "blockHash": "0xe65b8489df3e9126330339c723a448743a2262cbf629ea54680436849d28802a",
      "blockNumber": "0x23a7cdc",
      "gasUsed": "0xc629",
      "effectiveGasPrice": "0x59682f00",
      "from": "0xb76c4d0bdc1b1508b66a36be5fdc362cc79988b3",
      "to": "0xe2dc0a8d8aad4a177ce3285c65b71e042987184d",
      "contractAddress": null
    }
  ],
  "libraries": [],
  "pending": [],
  "returns": {},
  "timestamp": 1735821119,
  "chain": 43113,
  "commit": "3121332"
}