{
  "transactions": [
    {
      "hash": "0x895b1fd9d4975d76dc9ee6ebd17915fcb34246db9e32a4f2fb43aae573962e49",
      "transactionType": "CALL",
      "contractName": null,
      "contractAddress": "0xe2dc0a8d8aad4a177ce3285c65b71e042987184d",
      "function": "mint(address,string,uint256,string,uint256,uint256)",
      "arguments": [
        "0x424bBA2a6f1c14e4D8e2Cf1bCAE1B06740Fa4755",
        "Renewable Energy",
        "100",
        "ipfs://bafkreid5nywbwq3mujctdoz3ilxhncbvglmqe5m3jswg5qk5hn3mzqhnxq",
        "1735993266",
        "30000"
      ],
      "transaction": {
        "from": "0x424bba2a6f1c14e4d8e2cf1bcae1b06740fa4755",
        "to": "0xe2dc0a8d8aad4a177ce3285c65b71e042987184d",
        "gas": "0xccd1a",
        "value": "0x0",
        "input": "0x3934d9cb000000000000000000000000424bba2a6f1c14e4d8e2cf1bcae1b06740fa475500000000000000000000000000000000000000000000000000000000000000c00000000000000000000000000000000000000000000000000000000000000064000000000000000000000000000000000000000000000000000000000000010000000000000000000000000000000000000000000000000000000000677927b20000000000000000000000000000000000000000000000000000000000007530000000000000000000000000000000000000000000000000000000000000001052656e657761626c6520456e65726779000000000000000000000000000000000000000000000000000000000000000000000000000000000000000000000042697066733a2f2f6261666b72656964356e7977627771336d756a6374646f7a33696c78686e636276676c6d7165356d336a73776735716b35686e336d7a71686e7871000000000000000000000000000000000000000000000000000000000000",
        "nonce": "0x36",
        "chainId": "0xa869"
      },
      "additionalContracts": [],
      "isFixedGasLimit": false
    }
  ],
  "receipts": [
    {
      "status": "0x1",
      "cumulativeGasUsed": "0x8c0c1",
      "logs": [
        {
          "address": "0xe2dc0a8d8aad4a177ce3285c65b71e042987184d",
          "topics": [
            "0xddf252ad1be2c89b69c2b068fc378daa952ba7f163c4a11628f55a4df523b3ef",
            "0x0000000000000000000000000000000000000000000000000000000000000000",
            "0x000000000000000000000000424bba2a6f1c14e4d8e2cf1bcae1b06740fa4755",
            "0x0000000000000000000000000000000000000000000000000000000000000003"
          ],
          "data": "0x",
          "blockHash": "0xce78b70345f7bb89e0fec2c7ef4e50cde0f7845f6fa485126246ac2313e495e0",
          "blockNumber": "0x23a7c5e",
          "transactionHash": "0x895b1fd9d4975d76dc9ee6ebd17915fcb34246db9e32a4f2fb43aae573962e49",
          "transactionIndex": "0x0",
          "logIndex": "0x0",
          "removed": false
        },
        {
          "address": "0xe2dc0a8d8aad4a177ce3285c65b71e042987184d",
          "topics": [
            "0xf8e1a15aba9398e019f0b49df1a4fde98ee17ae345cb5f6b5e2c27f5033e8ce7"
          ],
          "data": "0x0000000000000000000000000000000000000000000000000000000000000003",
          "blockHash": "0xce78b70345f7bb89e0fec2c7ef4e50cde0f7845f6fa485126246ac2313e495e0",
          "blockNumber": "0x23a7c5e",
          "transactionHash": "0x895b1fd9d4975d76dc9ee6ebd17915fcb34246db9e32a4f2fb43aae573962e49",
          "transactionIndex": "0x0",
          "logIndex": "0x1",
          "removed": false
        },
        {
          "address": "0xe2dc0a8d8aad4a177ce3285c65b71e042987184d",
          "topics": [
            "0xc89b743e03e37adcbc8b2543a4fba8508331b81c3051eb4924259be6e5908cb7",
            "0x000000000000000000000000424bba2a6f1c14e4d8e2cf1bcae1b06740fa4755",
            "0x0000000000000000000000000000000000000000000000000000000000000003"
          ],
          "data": "0x0000000000000000000000000000000000000000000000000000000000007530000000000000000000000000000000000000000000000000000000000000006000000000000000000000000000000000000000000000000000000000677927b20000000000000000000000000000000000000000000000000000000000000042697066733a2f2f6261666b72656964356e7977627771336d756a6374646f7a33696c78686e636276676c6d7165356d336a73776735716b35686e336d7a71686e7871000000000000000000000000000000000000000000000000000000000000",
          "blockHash": "0xce78b70345f7bb89e0fec2c7ef4e50cde0f7845f6fa485126246ac2313e495e0",
          "blockNumber": "0x23a7c5e",
          "transactionHash": "0x895b1fd9d4975d76dc9ee6ebd17915fcb34246db9e32a4f2fb43aae573962e49",
          "transactionIndex": "0x0",
          "logIndex": "0x2",
          "removed": false
        }
      ],
      "logsBloom": "0x00040000000000000000000000000000000000000800000000000000000000000000000000000000000000000000000000000000020000000000000000000040000000000000000000000008000000000000000000000000000001000000000000000000020000000000000000000800000000000000000000000010000000000400000000000000000020000000000000000000000000000000000000000000000000000000000000000000000000002000000000800000000000000200408000000002000100000000000000000000000000000000000000000000020020000000000000000000200000000000000000000000000000000000000000000000",
      "type": "0x2",
      "transactionHash": "0x895b1fd9d4975d76dc9ee6ebd17915fcb34246db9e32a4f2fb43aae573962e49",
      "transactionIndex": "0x0",
      "blockHash": "0xce78b70345f7bb89e0fec2c7ef4e50cde0f7845f6fa485126246ac2313e495e0",
      "blockNumber": "0x23a7c5e",
      "gasUsed": "0x8c0c1",
      "effectiveGasPrice": "0x3b9aca01",
      "from": "0x424bba2a6f1c14e4d8e2cf1bcae1b06740fa4755",
      "to": "0xe2dc0a8d8aad4a177ce3285c65b71e042987184d",
      "contractAddress": null
    }
  ],
  "libraries": [],
  "pending": [],
  "returns": {},
  "timestamp": 1735820508,
  "chain": 43113,
  "commit": "3121332"
}