{
  "transactions": [
    {
      "hash": "0xb7013aada31ed7c73f43ea550b73b2f6df24a740c779aec2726b9e9eab3a194a",
      "transactionType": "CALL",
      "contractName": null,
      "contractAddress": "0x9cfdaeaff42d4941b8435a97646e80568e525f71",
      "function": "mint(address,string,uint256,string,uint256,uint256)",
      "arguments": [
        "0x424bBA2a6f1c14e4D8e2Cf1bCAE1B06740Fa4755",
        "Renewable Energy",
        "100",
        "ipfs://bafkreid5nywbwq3mujctdoz3ilxhncbvglmqe5m3jswg5qk5hn3mzqhnxq",
        "1736006760",
        "30000"
      ],
      "transaction": {
        "from": "0x424bba2a6f1c14e4d8e2cf1bcae1b06740fa4755",
        "to": "0x9cfdaeaff42d4941b8435a97646e80568e525f71",
        "gas": "0xccfa1",
        "value": "0x0",
        "input": "0x3934d9cb000000000000000000000000424bba2a6f1c14e4d8e2cf1bcae1b06740fa475500000000000000000000000000000000000000000000000000000000000000c0000000000000000000000000000000000000000000000000000000000000006400000000000000000000000000000000000000000000000000000000000001000000000000000000000000000000000000000000000000000000000067795c680000000000000000000000000000000000000000000000000000000000007530000000000000000000000000000000000000000000000000000000000000001052656e657761626c6520456e65726779000000000000000000000000000000000000000000000000000000000000000000000000000000000000000000000042697066733a2f2f6261666b72656964356e7977627771336d756a6374646f7a33696c78686e636276676c6d7165356d336a73776735716b35686e336d7a71686e7871000000000000000000000000000000000000000000000000000000000000",
        "nonce": "0x3f",
        "chainId": "0xa869"
      },
      "additionalContracts": [],
      "isFixedGasLimit": false
    }
  ],
  "receipts": [
    {
      "status": "0x1",
      "cumulativeGasUsed": "0x94665",
      "logs": [
        {
          "address": "0x9cfdaeaff42d4941b8435a97646e80568e525f71",
          "topics": [
            "0xddf252ad1be2c89b69c2b068fc378daa952ba7f163c4a11628f55a4df523b3ef",
            "0x0000000000000000000000000000000000000000000000000000000000000000",
            "0x000000000000000000000000424bba2a6f1c14e4d8e2cf1bcae1b06740fa4755",
            "0x0000000000000000000000000000000000000000000000000000000000000001"
          ],
          "data": "0x",
          "blockHash": "0x41df54a9934943531db854d00603774c5f09c904a8ad1feffaf617487fb882b1",
          "blockNumber": "0x23a84a9",
          "transactionHash": "0xb7013aada31ed7c73f43ea550b73b2f6df24a740c779aec2726b9e9eab3a194a",
          "transactionIndex": "0x0",
          "logIndex": "0x0",
          "removed": false
        },
        {
          "address": "0x9cfdaeaff42d4941b8435a97646e80568e525f71",
          "topics": [
            "0xf8e1a15aba9398e019f0b49df1a4fde98ee17ae345cb5f6b5e2c27f5033e8ce7"
          ],
          "data": "0x0000000000000000000000000000000000000000000000000000000000000001",
          "blockHash": "0x41df54a9934943531db854d00603774c5f09c904a8ad1feffaf617487fb882b1",
          "blockNumber": "0x23a84a9",
          "transactionHash": "0xb7013aada31ed7c73f43ea550b73b2f6df24a740c779aec2726b9e9eab3a194a",
          "transactionIndex": "0x0",
          "logIndex": "0x1",
          "removed": false
        },
        {
          "address": "0x9cfdaeaff42d4941b8435a97646e80568e525f71",
          "topics": [
            "0xc89b743e03e37adcbc8b2543a4fba8508331b81c3051eb4924259be6e5908cb7",
            "0x000000000000000000000000424bba2a6f1c14e4d8e2cf1bcae1b06740fa4755",
            "0x0000000000000000000000000000000000000000000000000000000000000001"
          ],
          "data": "0x000000000000000000000000000000000000000000000000000000000000753000000000000000000000000000000000000000000000000000000000000000600000000000000000000000000000000000000000000000000000000067795c680000000000000000000000000000000000000000000000000000000000000042697066733a2f2f6261666b72656964356e7977627771336d756a6374646f7a33696c78686e636276676c6d7165356d336a73776735716b35686e336d7a71686e7871000000000000000000000000000000000000000000000000000000000000",
          "blockHash": "0x41df54a9934943531db854d00603774c5f09c904a8ad1feffaf617487fb882b1",
          "blockNumber": "0x23a84a9",
          "transactionHash": "0xb7013aada31ed7c73f43ea550b73b2f6df24a740c779aec2726b9e9eab3a194a",
          "transactionIndex": "0x0",
          "logIndex": "0x2",
          "removed": false
        }
      ],
      "logsBloom": "0x00000000000000000000000000000000000000000800000000000000000000000000000000000000000000000000000000000000000000800000000000040040000000000000000000000008000000000000000000040000000001000000000000004000020000000000000000000800000000000000000000000010000000000000000000000000000020000000000000000000000000000000000000000000000000000000000000000000000000002000000000000000000200000000008000000002000100000000000000000000000000000000000000000000020060000000000000000000200000000000000000000000000000000000000000000000",
      "type": "0x2",
      "transactionHash": "0xb7013aada31ed7c73f43ea550b73b2f6df24a740c779aec2726b9e9eab3a194a",
      "transactionIndex": "0x0",
      "blockHash": "0x41df54a9934943531db854d00603774c5f09c904a8ad1feffaf617487fb882b1",
      "blockNumber": "0x23a84a9",
      "gasUsed": "0x94665",
      "effectiveGasPrice": "0x448b9b81",
      "from": "0x424bba2a6f1c14e4d8e2cf1bcae1b06740fa4755",
      "to": "0x9cfdaeaff42d4941b8435a97646e80568e525f71",
      "contractAddress": null
    }
  ],
  "libraries": [],
  "pending": [],
  "returns": {},
  "timestamp": 1735833999,
  "chain": 43113,
  "commit": "9a3364c"
}